S00D000059756E75732E73726563F3
S113000045C0000060C000005EC000005CC000008D
S11300105AC0000058C0000056C0000054C0000080
S113002052C0000050C000004EC000004CC0000090
S11300304AC0000048C0000046C0000044C00000A0
S113004063C0000040C000003EC000003CC000008F
S11300503AC0000038C0000036C0000034C00000C0
S113006032C0000030C000002EC000002CC00000D0
S11300702AC0000028C0000026C0000024C00000E0
S113008022C0000020C000001EC0000011241FBEBA
S1130090CFEFD0E1DEBFCDBF11E0A0E0B1E0E4EFEF
S11300A0F4E000E00BBF02C007900D92AC3BB10737
S11300B0D9F721E0ACEBB1E001C01D92A43CB2073A
S11300C0E1F7BBD115C29CCF9093900089B988E128
S11300D08AB986E08093950008955D9BFECF8CB924
S11300E0089584E083BF81E087BF86E082BF0895DE
S11300F0CF93DF93EC0102C02196EFDF8881811159
S1130100FBCFDF91CF9108951F920F920FB60F92FC
S113011011242F938F939F9380910001909101015B
S1130120019709F047C08091BC019091BD010196EF
S11301309093BD018093BC01883E934069F4109272
S1130140BD011092BC018091C2019091C30101963E
S11301509093C3018093C2018091C2019091C30125
S1130160CC9769F41092C3011092C2018091C0012E
S11301709091C10101969093C1018093C001809137
S1130180C0019091C101CC9721F41092C101109249
S1130190C0018091BE019091BF0101969093BF016F
S11301A08093BE01489721F41092BF011092BE01C2
S11301B086E082BF9F918F912F910F900FBE0F9079
S11301C01F9018958E3191050CF03BC082E091E0B0
S11301D08FDF2091C2013091C3012F5F3F4FADECFF
S11301E0BCEC63D19695879596958795969587955A
S11301F0805D73DF4091C2015091C3014F5F5F4F37
S11302009A01ADECBCEC51D196958795969587955E
S1130210969587959C01220F331F880F991F880F8D
S1130220991F880F991F820F931F9A01281B390B5E
S1130230C901805D52DF8DE050DF8AE091E058CF44
S11302400895883291050CF03BC082E091E050DFC4
S11302502091C2013091C3012F5F3F4FADECBCEC44
S113026024D1969587959695879596958795805DE3
S113027034DF4091C2015091C3014F5F5F4F9A0137
S1130280ADECBCEC12D1969587959695879596958D
S113029087959C01220F331F880F991F880F991F80
S11302A0880F991F820F931F9A01281B390BC901CC
S11302B0805D13DF8DE011DF89E291E019CF0895AD
S11302C0823391050CF03BC082E091E011DF209174
S11302D0C2013091C3012F5F3F4FADECBCECE5D0C0
S11302E0969587959695879596958795805DF5DE85
S11302F04091C2015091C3014F5F5F4F9A01ADEC31
S1130300BCECD3D0969587959695879596958795C9
S11303109C01220F331F880F991F880F991F880F84
S1130320991F820F931F9A01281B390BC901805D05
S1130330D4DE8DE0D2DE80E591E0DACE08958C3310
S113034091050CF03BC082E091E0D2DE2091C20125
S11303503091C3012F5F3F4FADECBCECA6D0969516
S113036087959695879596958795805DB6DE40919D
S1130370C2015091C3014F5F5F4F9A01ADECBCECD9
S113038094D09695879596958795969587959C0193
S1130390220F331F880F991F880F991F880F991FE9
S11303A0820F931F9A01281B390BC901805D95DECA
S11303B08DE093DE8DE691E09BCE08958634910521
S11303C00CF03AC082E091E093DE2091C2013091BA
S11303D0C3012F5F3F4FADECBCEC67D0969587957A
S11303E09695879596958795805D77DE4091C201B5
S11303F05091C3014F5F5F4F9A01ADECBCEC55D0F7
S11304009695879596958795969587959C01220F45
S1130410331F880F991F880F991F880F991F820F08
S1130420931F9A01281B390BC901805D56DE8DE0AC
S113043054DE8BE891E05CCE08958FEF87BB11BA50
S113044081E088BB87E690E03FDE4BDE80E88FBF2B
S11304508DE991E04DDE8091C2019091C301019636
S11304606AE070E00FD0892B19F482E390E0AADEF1
S11304702FEF8FE097E2215080409040E1F700C0D9
S11304800000E9CF97FB072E16F4009406D077FD01
S113049008D01AD007FC05D03EF4909581959F4F63
S11304A00895709561957F4F0895A29FB001B39F01
S11304B0C001A39F700D811D1124911DB29F700D69
S11304C0811D1124911D0895AA1BBB1B51E107C076
S11304D0AA1FBB1FA617B70710F0A61BB70B881FD0
S11304E0991F5A95A9F780959095BC01CD0108955F
S10704F0F894FFCFAA
S11304F4010054696D65200D0A00506C65617365D3
S1130504205761746572206E6F7720697473207547
S11305147267656E74200D0A00596F752073686FD5
S1130524756C64207265616C6C7920636F6E736999
S1130534646572207761746572696E67200D0A00C0
S1130544596F752063616E20636F6E73696465729D
S1130554207761746572696E67200D0A00596F759E
S11305642063616E2077617465722C206275742037
S11305746E6F206E656564200D0A00446F206E6FF3
S1130584742057617465722021200D0A0057656C2C
S1130594636F6D6520746F2074686520576174659A
S10F05A47273797374656D200D0A0000F9
S9030000FC
