S01000004B696C69616E5F312E737265632C
S11300000C942A000C9447000C9447000C9447006D
S11300100C9447000C9447000C9447000C94470040
S11300200C9447000C9447000C9447000C94470030
S11300300C9447000C9447000C9447000C94470020
S11300400C9447000C9447000C9447000C94470010
S11300500C94470011241FBECFE5D4E0DEBFCDBF12
S113006010E0A0E6B0E0EAEAFDE002C005900D92DF
S1130070A438B107D9F720E0A4E8B0E001C01D928C
S1130080AC38B207E1F70E94FD010C94D3060C943E
S1130090000088BB85B38C7F85BB85B3846085BB3A
S11300A082E08A95F1F700C085B38B7F85BB8FE62C
S11300B097E10197F1F700C00000089588BB85B36C
S11300C08D7F85BB85B3856085BB82E08A95F1F71A
S11300D000C085B38B7F85BB8FEC97E00197F1F768
S11300E000C00000089584B3876084BB8FEF87BB92
S11300F08FE39CE90197F1F700C0000088E30E94B8
S113010049008CE00E94490086E00E94490081E099
S11301100E94490080E80E94490008950F931F93AC
S1130120CF93DF938C01C0E0D0E003C00E945E0057
S11301302196F801EC0FFD1F80818111F7CFDF912B
S1130140CF911F910F910895CF93DF93EA018130EE
S113015031F4862F8F7080680E94490007C0823076
S113016029F4862F8F70806C0E944900CE010E9472
S11301708E00DF91CF91089581E00E944900089597
S11301801ABA87E886B980E487B9089587708064CD
S113019087B986B1806486B9349BFECF86B180610D
S11301A086B98FEC97E00197F1F700C0000084B1A5
S11301B095B108950E94C0000E9473008FEF81BB27
S11301C008958F929F92AF92BF92CF92DF92EF9257
S11301D0FF920F931F93CF93DF93CDB7DEB728978A
S11301E00FB6F894DEBF0FBECDBF4B015C01E982B0
S11301F0FA820B831C832D833E834F835887C980E7
S1130200DA80EB80FC809B01AC01C701B6010E943F
S113021077038823FCF4A5019401C701B6010E9469
S11302201802882354F42D813E814F815885C501DD
S1130230B4010E941802181684F42D813E814F8166
S11302405885C501B4010E94770318164CF080E06C
S113025090E008C081E090E005C082E090E002C038
S113026083E090E028960FB6F894DEBF0FBECDBFB2
S1130270DF91CF911F910F91FF90EF90DF90CF907E
S1130280BF90AF909F908F90089581E080BB0895B8
S113029082E082BB08950E94DA00E4E8F0E080E0A6
S11302A090E0A0EAB1E484839583A683B78380E0D9
S11302B090E0A0E2B1E480839183A283B38340E61B
S11302C050E060E081E00E94A4002FEF83ED90E312
S11302D0215080409040E1F700C000000E94BC0023
S11302E0089580E00E94C600BC01990F880B990B09
S11302F00E94C70226EF38E24CE950E40E947C03D6
S113030020E030E040E251E40E941D020895CF92C3
S1130310DF92EF92FF920F931F93CF93DF93CDB7AA
S1130320DEB72A970FB6F894DEBF0FBECDBF6B01C0
S11303307C014FE650E060E081E00E94A4001F923F
S11303408FED8F93C701B6010E948F027F936F9345
S11303508BE790E09F938F938E010F5F1F4F1F9346
S11303600F930E94E903A80160E082E00E94A400C8
S11303708AE0F80111928A95E9F70FB6F894DEBF86
S11303800FBECDBF2A960FB6F894DEBF0FBECDBF09
S1130390DF91CF911F910F91FF90EF90DF90CF905D
S11303A00895EF92FF920F931F93CF93DF93CDB7EE
S11303B0DEB728970FB6F894DEBF0FBECDBF0E94FC
S11303C0E1008130910519F40E94450109C0823091
S11303D0910511F412BA04C0039711F40E94480164
S11303E028960FB6F894DEBF0FBECDBFDF91CF9134
S11303F01F910F91FF90EF9008950E944B010E946E
S113040071010E9487010E947101E0908400F090C4
S1130410850000918600109187002091880030911A
S1130420890040918A0050918B000E94D101E7CF4E
S11304300E94020308F481E008950E9431020C94A2
S11304403D030E94360358F00E942F0340F029F424
S11304505F3F29F00C94260351110C9471030C9402
S11304602C030E944E0368F39923B1F3552391F3AF
S1130470951B550BBB27AA2762177307840738F00F
S11304809F5F5F4F220F331F441FAA1FA9F335D06C
S11304900E2E3AF0E0E832D091505040E695001C20
S11304A0CAF72BD0FE2F29D0660F771F881FBB1FDA
S11304B0261737074807AB07B0E809F0BB0B802DB8
S11304C0BF01FF2793585F4F3AF09E3F510578F0E4
S11304D00C9426030C9471035F3FE4F3983ED4F329
S11304E0869577956795B795F7959F5FC9F7880FB8
S11304F0911D9695879597F90895E1E0660F771F0A
S1130500881FBB1F621773078407BA0720F0621B9A
S1130510730B840BBA0BEE1F88F7E09508950E94C5
S113052096026894B1110C94710308950E945603C5
S113053088F09F5798F0B92F9927B751B0F0E1F0A0
S1130540660F771F881F991F1AF0BA95C9F714C050
S1130550B13091F00E947003B1E008950C947003DF
S1130560672F782F8827B85F39F0B93FCCF3869589
S113057077956795B395D9F73EF4909580957095E6
S113058061957F4F8F4F9F4F0895E89409C097FB63
S11305903EF490958095709561957F4F8F4F9F4F56
S11305A09923A9F0F92F96E9BB279395F69587959A
S11305B077956795B795F111F8CFFAF4BB0F11F45D
S11305C060FF1BC06F5F7F4F8F4F9F4F16C0882304
S11305D011F096E911C0772321F09EE8872F762F3A
S11305E005C0662371F096E8862F70E060E02AF07B
S11305F09A95660F771F881FDAF7880F9695879567
S113060097F90895990F0008550FAA0BE0E8FEEF3B
S113061016161706E807F907C0F012161306E407C2
S1130620F50798F0621B730B840B950B39F40A26BB
S113063061F0232B242B252B21F408950A2609F499
S1130640A140A6958FEF811D811D089597F99F679D
S113065080E870E060E008959FEF80EC0895002446
S11306600A941616170618060906089500240A9413
S113067012161306140605060895092E0394000C99
S113068011F4882352F0BB0F40F4BF2B11F460FF28
S113069004C06F5F7F4F8F4F9F4F089557FD905851
S11306A0440F551F59F05F3F71F04795880F97FB32
S11306B0991F61F09F3F79F08795089512161306EC
S11306C01406551FF2CF4695F1DF08C0161617061B
S11306D01806991FF1CF8695710561050894089550
S11306E0E894BB2766277727CB0197F908950E94E2
S11306F0020308F48FEF08950E948F030C943D03C6
S11307000E942F0338F00E94360320F0952311F045
S11307100C9426030C942C0311240C9471030E9452
S11307204E0370F3959FC1F3950F50E0551F629FE0
S1130730F001729FBB27F00DB11D639FAA27F00D36
S1130740B11DAA1F649F6627B00DA11D661F829F5D
S11307502227B00DA11D621F739FB00DA11D621F42
S1130760839FA00D611D221F749F3327A00D611D5F
S1130770231F849F600D211D822F762F6A2F112441
S11307809F5750409AF0F1F088234AF0EE0FFF1F74
S1130790BB1F661F771F881F91505040A9F79E3FCB
S11307A0510580F00C9426030C9471035F3FE4F32D
S11307B0983ED4F3869577956795B795F795E79521
S11307C09F5FC1F7FE2B880F911D9695879597F92A
S11307D00895AEE0B0E0EFEEF3E00C94AA060D89C4
S11307E01E8986E08C831A8309838FEF9FE79E839B
S11307F08D83AE01475E5F4F6F89788DCE01019680
S11308000E940B04EF81F885E00FF11F10822E96F1
S1130810E4E00C94C606ABE0B0E0E1E1F4E00C9453
S11308209C066C017B018A01FC011782168283817C
S113083081FFCCC1CE0101963C01F6019381F70101
S113084093FD859193FF81917F01882309F4BAC1B7
S1130850853239F493FD859193FF81917F0185322F
S113086029F4B60190E00E940206E7CF912C212CD6
S1130870312CFFE1F315D8F08B3279F038F4803263
S113088079F08332A1F4232D20611DC08D3261F0F3
S1130890803369F4232D216016C0832D8260382EA5
S11308A0E32DE4603E2E2AC0F32DF8601DC037FC12
S11308B02DC020ED280F2A3040F08E32B9F436FCDA
S11308C081C1232D2064322E19C036FE06C08AE071
S11308D0989E200D1124922E11C0EAE02E9E200D28
S11308E01124222EF32DF0623F2E08C08C3621F401
S11308F0832D8068382E02C0883641F4F70193FDB9
S1130900859193FF81917F018111B3CF982F9F7DB2
S11309109554933028F40C5F1F4F9FE399830DC0C7
S1130920833631F0833771F0833509F059C021C023
S1130930F801808189830E5F1F4F88248394912C52
S1130940530113C02801F2E04F0E511CF801A0809E
S1130950B18036FE03C0692D70E002C06FEF7FEFF7
S1130960C5010E94F7054C018201F32DFF773F2E4C
S113097016C0280122E0420E511CF801A080B1806B
S113098036FE03C0692D70E002C06FEF7FEFC50132
S11309900E94EC054C01F32DF0683F2E820133FCDC
S11309A01BC0822D90E088169906B0F4B60180E24F
S11309B090E00E9402062A94F4CFF50137FC859159
S11309C037FE81915F01B60190E00E94020621107A
S11309D02A9421E0821A91088114910471F7E8C0E5
S11309E0843611F0893641F5F80137FE07C060817D
S11309F07181828193810C5F1F4F08C06081718176
S1130A00072E000C880B990B0E5F1F4FF32DFF76FA
S1130A103F2E97FF09C090958095709561957F4F03
S1130A208F4F9F4FF0683F2E2AE030E0A3010E94D1
S1130A303E06882E861845C0853731F4232D2F7E37
S1130A40B22E2AE030E025C0932D997FB92E8F363F
S1130A50C1F018F4883579F0B5C0803719F08837BB
S1130A6021F0B0C0E92FE061BE2EB4FE0DC0FB2D15
S1130A70F460BF2E09C034FE0AC0292F2660B22EAE
S1130A8006C028E030E005C020E130E002C020E1EB
S1130A9032E0F801B7FE07C06081718182819381E1
S1130AA00C5F1F4F06C06081718180E090E00E5F93
S1130AB01F4FA3010E943E06882E8618FB2DFF7748
S1130AC03F2E36FE0DC0232D2E7FA22E891458F4FE
S1130AD034FE0BC032FC09C0832D8E7EA82E05C0C7
S1130AE0B82CA32C03C0B82C01C0B92CA4FE0FC091
S1130AF0FE01E80DF11D8081803321F49A2D997E49
S1130B00A92E09C0A2FE06C0B394B39404C08A2DD2
S1130B10867809F0B394A3FC11C0A0FE06C0B214F9
S1130B2088F4280C922C9B180EC0B21460F4B60101
S1130B3080E290E00E940206B394F7CFB21418F456
S1130B402B1802C0982C212CA4FE10C0B60180E3FF
S1130B5090E00E940206A2FE17C0A1FC03C088E731
S1130B6090E002C088E590E0B6010CC08A2D86783A
S1130B7059F0A1FE02C08BE201C080E2A7FC8DE225
S1130B80B60190E00E940206891438F4B60180E3AD
S1130B9090E00E9402069A94F7CF8A94F301E80D3C
S1130BA0F11D8081B60190E00E9402068110F5CF0C
S1130BB0222009F442CEB60180E290E00E940206AF
S1130BC02A94F6CFF6018681978102C08FEF9FEFBA
S1130BD02B96E2E10C94B806FC010590615070403C
S1130BE00110D8F7809590958E0F9F1F0895FC01F2
S1130BF06150704001900110D8F7809590958E0F48
S1130C009F1F08950F931F93CF93DF93FB012381BD
S1130C1021FD03C08FEF9FEF2CC022FF16C0468139
S1130C205781248135814217530744F4A081B1814F
S1130C309D012F5F3F4F318320838C932681378121
S1130C402F5F3F4F3783268314C08B01EC01FB01D8
S1130C500084F185E02D0995892BE1F6D8011696DB
S1130C608D919C911797019617969C938E93169746
S1130C70CE01DF91CF911F910F910895FA01AA2718
S1130C80283051F1203181F1E8946F936E7F6E5FCB
S1130C907F4F8F4F9F4FAF4FB1E03ED0B4E03CD079
S1130CA0670F781F891F9A1FA11D680F791F8A1F5C
S1130CB0911DA11D6A0F711D811D911DA11D20D0C3
S1130CC009F468943F912AE0269F11243019305D7D
S1130CD03193DEF6CF010895462F4770405D41936E
S1130CE0B3E00FD0C9F7F6CF462F4F70405D4A33BB
S1130CF018F0495D31FD4052419302D0A9F7EACF83
S1130D00B4E0A6959795879577956795BA95C9F7B1
S1130D1000976105710508959B01AC010A2E0694A4
S1130D205795479537952795BA95C9F7620F731F5D
S1130D30841F951FA01D08952F923F924F925F929A
S1130D406F927F928F929F92AF92BF92CF92DF92D7
S1130D50EF92FF920F931F93CF93DF93CDB7DEB73C
S1130D60CA1BDB0B0FB6F894DEBF0FBECDBF0994D0
S1130D702A88398848885F846E847D848C849B8427
S1130D80AA84B984C884DF80EE80FD800C811B8135
S1130D90AA81B981CE0FD11D0FB6F894DEBF0FBE64
S10D0DA0CDBFED010895F894FFCFD4
S1130DAA57454C434F4D452054435F5359530054C0
S1130DBA656D706572617475726500256425634397
S1070DCA20200000E1
S9030000FC
