:1000000045C0000053C0000051C000004FC00000B8
:100010004DC000004CC0000049C0000047C00000B7
:1000200045C0000043C0000041C000003FC00000C8
:100030003DC000003BC0000039C0000037C00000D8
:1000400035C0000033C0000031C000002FC00000E8
:100050002DC000002BC0000029C0000027C00000F8
:1000600025C0000023C0000021C000001FC0000008
:100070001DC000001BC0000019C0000017C0000018
:1000800015C0000013C0000011C0000011241FBEE5
:10009000CFEFD0E1DEBFCDBF21E0A0E0B1E001C0F5
:1000A0001D92A230B207E1F773D089C0A9CF1F9289
:1000B0000F920FB60F9211248F939F93809100019E
:1000C00090910101049779F081E088BB8FE397E775
:1000D0000197F1F700C0000018BA8FE397E7019786
:1000E000F1F700C000009F918F910F900FBE0F900D
:1000F0001F90189581E088BB8FE397E70197F1F790
:1001000000C0000018BA8FE397E70197F1F700C02D
:10011000000008958091000190910101009741F441
:10012000809B06C001969093010180930001089581
:100130008130910541F4819B06C0019690930101A5
:100140008093000108958230910541F4829B06C09E
:1001500001969093010180930001089583309105E9
:1001600059F4839B09C0019690930101809300018B
:10017000C1DFC0DFBFCF089580B30895879B07C05C
:100180001092010110920001B5DFB4DFB3CF0895E2
:1001900011BA81E087BB12B880E183B990E89093EF
:1001A0006A0089BF8FB780688FBF809100019091EE
:1001B0000101049711F0AEDFF8CFE0DFF6CFF8943D
:0201C000FFCF6F
:00000001FF
