S00F000050726F6A6563742E737265633E
S113000045C0000053C0000051C000004FC00000B4
S11300104DC0000087C00000C3C00000FFC0000046
S11300203BC1000043C0000041C000003FC00000CD
S11300303DC000003BC000005EC0000037C00000AF
S113004035C0000033C0000031C000002FC00000E4
S11300502DC000002BC0000029C0000027C00000F4
S113006025C0000023C0000021C000001FC0000004
S11300701DC000001BC0000019C0000017C0000014
S113008015C0000013C0000011C0000011241FBEE1
S1130090CFEFD0E1DEBFCDBF21E0A0E0B1E001C0F1
S11300A01D92A430B207E1F737D1B5C2A9CF81E0E0
S11300B088BB8FE99BE30197F1F700C0000018BAF1
S11300C08FE99BE30197F1F700C000000895079BB7
S11300D007C01092010110920001E9DFE8DFE7CFC9
S11300E008958091000190910101049719F0DFDFD8
S11300F0DEDFDDCF08951F920F920FB60F92112409
S11301008F939F93809102019091030101969093A4
S11301100301809302019F918F910F900FBE0F9066
S11301201F9018951F920F920FB60F9211240BB6C1
S11301300F922F933F934F935F936F937F938F937C
S11301409F93AF93BF93EF93FF938091000190919E
S11301500101892B41F4ABDF81E090E09093010130
S1130160809300010AC080910001909101010497DD
S113017021F01092010110920001FF91EF91BF91C3
S1130180AF919F918F917F916F915F914F913F912B
S11301902F910F900BBE0F900FBE0F901F901895CC
S11301A01F920F920FB60F9211240BB60F922F933A
S11301B03F934F935F936F937F938F939F93AF93EB
S11301C0BF93EF93FF9380910001909101010197F8
S11301D041F46DDF82E090E090930101809300018F
S11301E00AC08091000190910101049721F01092BE
S11301F0010110920001FF91EF91BF91AF919F9186
S11302008F917F916F915F914F913F912F910F90BB
S11302100BBE0F900FBE0F901F9018951F920F9258
S11302200FB60F9211240BB60F922F933F934F9357
S11302305F936F937F938F939F93AF93BF93EF934A
S1130240FF938091000190910101029741F42FDF07
S113025083E090E090930101809300010AC08091B3
S1130260000190910101049721F010920101109274
S11302700001FF91EF91BF91AF919F918F917F9179
S11302806F915F914F913F912F910F900BBE0F9003
S11302900FBE0F901F9018951F920F920FB60F92DA
S11302A011240BB60F922F933F934F935F936F9349
S11302B07F938F939F93AF93BF93EF93FF9380911B
S11302C0000190910101039751F484E090E0909330
S11302D0010180930001EBDEEADEE9DE0AC08091D1
S11302E0000190910101049721F0109201011092F4
S11302F00001FF91EF91BF91AF919F918F917F91F9
S11303006F915F914F913F912F910F900BBE0F9082
S11303100FBE0F901F90189591E09ABB8FEF82BB90
S113032012B81092610083B920E820936A0089BF53
S11303308FB780688FBF97BB789484E087BF1FBC5A
S1130340109201011092000180910001909101012D
S1130350049709F440C08BB381608BBB2AE12A95D2
S1130360F1F700C08BB38E7F8BBB1DBC1CBC81E43A
S11303708EBD80E286BF84E086BF06B605FEFDCF53
S11303801DBC1CBC81E08EBD80E286BF84E086BFBC
S1130390109203011092020106B605FEFDCF66B568
S11303A077B580E090E087D029E23CE349EE53E45E
S11303B018D020E030E040E251E40FD088230CF460
S11303C090DE8FEF91EE24E0815090402040E1F7E1
S11303D000C00000B9CF7BDEB7CFA8D008F481E01D
S11303E008950CD0DEC0D6D040F0CDD030F021F44A
S11303F05F3F19F0BFC0511108C1C2C0E3D098F3E8
S11304009923C9F35523B1F3951B550BBB27AA2791
S113041062177307840738F09F5F5F4F220F331F03
S1130420441FAA1FA9F333D00E2E3AF0E0E830D0CF
S113043091505040E695001CCAF729D0FE2F27D0D2
S1130440660F771F881FBB1F261737074807AB07A0
S1130450B0E809F0BB0B802DBF01FF2793585F4F15
S11304602AF09E3F510568F085C0CFC05F3FECF392
S1130470983EDCF3869577956795B795F7959F5FDA
S1130480C9F7880F911D9695879597F90895E1E02E
S1130490660F771F881FBB1F621773078407BA078D
S11304A020F0621B730B840BBA0BEE1F88F7E095E8
S11304B00895E89409C097FB3EF490958095709553
S11304C061957F4F8F4F9F4F9923A9F0F92F96E99C
S11304D0BB279395F695879577956795B795F11111
S11304E0F8CFFAF4BB0F11F460FF1BC06F5F7F4FAE
S11304F08F4F9F4F16C0882311F096E911C07723C0
S113050021F09EE8872F762F05C0662371F096E8C8
S1130510862F70E060E02AF09A95660F771F881F97
S1130520DAF7880F9695879597F90895990F00083B
S1130530550FAA0BE0E8FEEF16161706E807F907B1
S1130540C0F012161306E407F50798F0621B730B4C
S1130550840B950B39F40A2661F0232B242B252BCD
S113056021F408950A2609F4A140A6958FEF811D70
S1130570811D089597F99F6780E870E060E0089511
S11305809FEF80EC089500240A94161617061806A7
S11305900906089500240A94121613061406050683
S11305A00895092E0394000C11F4882352F0BB0F14
S11305B040F4BF2B11F460FF04C06F5F7F4F8F4F77
S11305C09F4F089557FD9058440F551F59F05F3FB2
S11305D071F04795880F97FB991F61F09F3F79F061
S11305E087950895121613061406551FF2CF4695E3
S11305F0F1DF08C0161617061806991FF1CF869565
S11306007105610508940895E894BB276627772748
S10D0610CB0197F90895F894FFCF89
S9030000FC
